:020000040800F2
:100000000000022095040008E9030008F902000836
:1000100000000000000000000000000000000000E0
:10002000000000000000000000000000EB030008DA
:100030000000000000000000ED030008EF030008CE
:10004000F1030008F3030008F5030008F7030008B4
:10005000F9030008FB030008FD030008FF03000884
:100060000104000803040008050400080704000850
:10007000090400080B0400080D0400080F04000820
:1000800011040008130400081504000817040008F0
:10009000190400081B0400081D0400081F040008C0
:1000A0002104000823040008250400082704000890
:1000B000290400082B0400082D0400082F04000860
:1000C0003104000833040008350400083704000830
:1000D000390400083B0400083D0400083F04000800
:1000E00041040008430400084504000847040008D0
:1000F000490400084B0400084D0400084F040008A0
:10010000510400085304000855040008570400086F
:10011000590400085B0400085D0400085F0400083F
:10012000610400086304000865040008670400080F
:10013000690400086B0400086D0400086F040008DF
:1001400071040008730400087504000877040008AF
:10015000790400087B0400087D0400087F0400087F
:10016000810400088304000885040008870400084F
:10017000890400088B0400088D040008930400081B
:080180008F040008910400083F
:10018800154BD3F88830144A43F47003C2F888300A
:10019800124B1B68114A43F0010313600F4B0022F6
:1001A8009A600E4B1B680D4A23F0847323F4803346
:1001B80013600A4B0A4A5A60084B1B68074A23F423
:1001C80080231360054B0022DA60034B4FF0006276
:1001D8009A6000BF704700BF00ED00E000380240A1
:0401E80010300024AF
:1001EC0086B000230493002305930223039300237A
:1001FC00029302230193334B9B6803F00C0304938B
:10020C00049B082B11D0049B082B44D8049B002B77
:10021C0003D0049B042B04D03DE02B4B2B4A1A60DB
:10022C003DE0294B2A4A1A6039E0264B5B689B0D4E
:10023C0003F001030293234B5B6803F03F0301932C
:10024C00029B002B0CD0224A019BB2FBF3F31D4AFC
:10025C0052689209C2F3080202FB03F305930BE008
:10026C001A4A019BB2FBF3F3164A52689209C2F385
:10027C00080202FB03F30593124B5B681B0C03F0A3
:10028C00030301335B000393059A039BB2FBF3F367
:10029C000D4A136003E00C4B0C4A1A6000BF094B6B
:1002AC009B681B0903F00F030A4AD35C0493064BAB
:1002BC001A68049B22FA03F3034A136000BF06B0CA
:1002CC00704700BF00380240000000100024F4000A
:0802DC0040787D0120030008B9
:1002E400034C206804348047FBE700F01FF8FEE766
:0402F400FC040008FE
:1002F80008490A68002AFED41EF0040F0CBFEFF369
:100308000880EFF3098042F000420A6081690231F7
:08031800816170472CED00E04B
:1003200000000000000000000102030406070809A5
:1003300000B585B0254B1B6B244A43F008031363BB
:10034000234B1B68224A43F0AA4313600023039304
:10035000C823029336E01F4A039B52F82330012240
:100360009A401B4B5A61029B3233184600F09EF8AC
:10037000039B032B01DD00230393039B01931BE0ED
:10038000134B5B691349019A51F82220012101FAAC
:1003900002F211460E4A4B405361029B323318461B
:1003A00000F084F8039A019B9A4202D1039B013327
:1003B0000393019B013B0193019B002BE0DA029B1D
:1003C000013B0293029B002BC5DCBFE700380240D3
:0803D000000C0240D8030008F4
:1003D8000C0000000D0000000E0000000F000000DF
:0203E800FEE72E
:0203EA00FEE72C
:0203EC00FEE72A
:0203EE00FEE728
:0203F000FEE726
:0203F200FEE724
:0203F400FEE722
:0203F600FEE720
:0203F800FEE71E
:0203FA00FEE71C
:0203FC00FEE71A
:0203FE00FEE718
:02040000FEE715
:02040200FEE713
:02040400FEE711
:02040600FEE70F
:02040800FEE70D
:02040A00FEE70B
:02040C00FEE709
:02040E00FEE707
:02041000FEE705
:02041200FEE703
:02041400FEE701
:02041600FEE7FF
:02041800FEE7FD
:02041A00FEE7FB
:02041C00FEE7F9
:02041E00FEE7F7
:02042000FEE7F5
:02042200FEE7F3
:02042400FEE7F1
:02042600FEE7EF
:02042800FEE7ED
:02042A00FEE7EB
:02042C00FEE7E9
:02042E00FEE7E7
:02043000FEE7E5
:02043200FEE7E3
:02043400FEE7E1
:02043600FEE7DF
:02043800FEE7DD
:02043A00FEE7DB
:02043C00FEE7D9
:02043E00FEE7D7
:02044000FEE7D5
:02044200FEE7D3
:02044400FEE7D1
:02044600FEE7CF
:02044800FEE7CD
:02044A00FEE7CB
:02044C00FEE7C9
:02044E00FEE7C7
:02045000FEE7C5
:02045200FEE7C3
:02045400FEE7C1
:02045600FEE7BF
:02045800FEE7BD
:02045A00FEE7BB
:02045C00FEE7B9
:02045E00FEE7B7
:02046000FEE7B5
:02046200FEE7B3
:02046400FEE7B1
:02046600FEE7AF
:02046800FEE7AD
:02046A00FEE7AB
:02046C00FEE7A9
:02046E00FEE7A7
:02047000FEE7A5
:02047200FEE7A3
:02047400FEE7A1
:02047600FEE79F
:02047800FEE79D
:02047A00FEE79B
:02047C00FEE799
:02047E00FEE797
:02048000FEE795
:02048200FEE793
:02048400FEE791
:02048600FEE78F
:02048800FEE78D
:02048A00FEE78B
:02048C00FEE789
:02048E00FEE787
:02049000FEE785
:02049200FEE783
:10049400FFF778FE4EF68850CEF20000016851F462
:0804A40070010160FFF71CFF6D
:1004AC0084B0019009E04FF4FA73039300E000BFAD
:1004BC00039B5A1E0392002BF9DC019B5A1E0192DE
:0C04CC00002BF0DC00BF00BF04B0704744
:0404D800ED0100082A
:1004DC00754605480549884205D00268043003B4C6
:1004EC00904703BCF7E72847D8040008DC04000851
:1004FC001905000800000010140500080400000095
:08050C00DD040008EF02000805
:040514000024F400CB
:1005180020686168A2680C3401E08B5C8354013A5E
:04052800FBD5704748
:040000050800049556
:00000001FF
